:020000040800F2
:1000000000000220511C0008710900087309000853
:100010007509000877090008790900080000000048
:100020000000000000000000000000007B09000844
:100030007D090008000000007F0900088109000810
:10004000A11C0008A11C0008A11C0008A11C00089C
:10005000A11C0008A11C0008A11C0008A11C00088C
:10006000A11C0008A11C0008A11C0008A11C00087C
:10007000A11C0008A11C0008A11C0008A11C00086C
:10008000A11C0008A11C0008A11C0008A11C00085C
:10009000A11C0008A11C0008A11C0008A11C00084C
:1000A000A11C0008A11C0008A11C0008A11C00083C
:1000B000A11C0008A11C0008A11C0008A11C00082C
:1000C000A11C0008A11C0008A11C0008A11C00081C
:1000D000A11C0008A11C0008A11C0008A11C00080C
:1000E000A11C0008A11C000800000000A11C0008C1
:1000F000A11C0008A11C0008A11C0008A11C0008EC
:10010000A11C0008A11C0008A11C0008A11C0008DB
:10011000A11C0008A11C0008A11C0008A11C0008CB
:10012000A11C0008A11C0008A11C0008A11C0008BB
:10013000A11C0008A11C0008A11C0008A11C0008AB
:1001400000000000000000000000000000000000AF
:10015000A11C0008A11C0008A11C0008A11C00088B
:10016000A11C0008A11C0008A11C0008A11C00087B
:10017000A11C0008A11C0008A11C0008A11C00086B
:10018000A11C0008A11C0008A11C0008A11C00085B
:10019000A11C0008A11C0008A11C0008A11C00084B
:1001A000A11C0008A11C0008A11C0008A11C00083B
:1001B000A11C0008A11C0008A11C0008A11C00082B
:1001C000A11C0008A11C0008A11C0008A11C00081B
:1001D000A11C0008A11C0008A11C0008A11C00080B
:1001E000A11C0008A11C0008A11C0008A11C0008FB
:1001F000A11C0008A11C0008A11C0008A11C0008EB
:10020000A11C0008A11C0008A11C0008A11C0008DA
:10021000A11C0008A11C0008A11C0008A11C0008CA
:10022000A11C0008A11C0008A11C0008000000007F
:10023000A11C0008A11C000800000000A11C00086F
:10024000A11C0008A11C0008A11C0008A11C00089A
:10025000A11C0008A11C0008A11C0008A11C00088A
:10026000A11C0008A11C0008A11C0008A11C00087A
:10027000A11C0008A11C0008A11C0008000000002F
:10028000A11C0008A11C0008A11C0008000000001F
:1002900000000000A11C000810B5054C237833B9FC
:1002A000044B13B10448AFF300800123237010BD49
:1002B0003C04002000000000081E000808B5034BA5
:1002C0001BB103490348AFF3008008BD00000000E4
:1002D00040040020081E000880B59CB0BFF34F8F7B
:1002E000BFF36F8F684B0021C3F85012BFF34F8FDD
:1002F000BFF36F8F5A6942F400325A61BFF34F8FD8
:10030000BFF36F8FC3F88410BFF34F8FD3F88020F3
:1003100043F6E076C2F3C904C2F34E32A507520198
:1003200002EA060C284621464CEA0007013900F192
:100330004040C3F860724F1CF6D1203A12F1200FF2
:10034000EED1BFF34F8F5A6942F480325A61BFF346
:100350004F8FBFF36F8F00F079FB022000F016FD86
:1003600000230093494BDA6A22F00102DA62DB6A69
:1003700003F001030093464B9A6942F440429A61AC
:100380009A6902F440420092009A9A699404FCD55A
:100390004FF480334FF0010E0520A02102220424E7
:1003A00008251692189217941995CDE909E30023B0
:1003B000CDE9140109A80C9310931B931A93CDE96E
:1003C000122201F005F800B1FEE703234FF03F0CC5
:1003D0004FF480622146CDE901C34023CDE90305F6
:1003E00001A8CDE90533CDE9072301F00DFB00B1EC
:1003F000FEE700F0BBF900B1FEE7BFF34F8FBFF39C
:100400006F8F214B5A6922F400325A61C3F85002AF
:10041000BFF34F8FBFF36F8FC3F88400BFF34F8FCD
:100420005A6922F480325A61BFF34F8FD3F880208B
:1004300043F6E076C2F3C904C2F34E32A507520177
:1004400002EA060C284621464CEA0007013900F171
:100450004040C3F874724F1CF6D1203A12F1200FBD
:10046000EED1BFF34F8FBFF36F8F0A4B00221A609C
:10047000094B0A4A1B6813604FF01042126882F35E
:1004800008889847FEE700BF00ED00E00004005830
:100490000048025810E000E00400009058040020DA
:1004A0007B4B2DE9F04FD3F8D42091B0794D09243E
:1004B00042F480420026784F0BA9C3F8D420284686
:1004C000D3F8D4204FF040084FF00A0BDFF8D0A14A
:1004D00002F480424FF400790092009ADA6F42F4FD
:1004E0008042DA67DA6F22F48042DA67D3F8E020DC
:1004F00042F02002C3F8E020D3F8E02002F020020E
:100500000192019AD3F8E02042F00802C3F8E020FB
:10051000D3F8E02002F008020292029AD3F8E02019
:1005200042F02002C3F8E020D3F8E02002F02002DD
:100530000392039AD3F8E02042F02002C3F8E020AF
:10054000D3F8E02002F020020492049AD3F8E020CD
:1005500042F02002C3F8E020D3F8E02002F02002AD
:100560000592059AD3F8E02042F04002C3F8E0205B
:10057000D3F8E02002F040020692069AD3F8E02079
:1005800042F08002C3F8E020D3F8E02002F08002BD
:100590000792079AD3F8E02042F08002C3F8E020E7
:1005A000D3F8E02002F080020892089AD3F8E02005
:1005B00042F04002C3F8E020D3F8E02002F040020D
:1005C0000992099AD3F8E02042F04002C3F8E020F3
:1005D0004FF48062D3F8E03003F040030A930A9BA3
:1005E0000223CDE90B230323CDE90D630F9400F023
:1005F000DBFA01230BA93846CDF82C800D93CDF8FA
:100600003CB000F0D1FA4FF400630BA923480B93E0
:100610000D960F9400F0C8FA04230BA950460F94CE
:100620000B9300F0C1FA0BA92846CDF82C90CDF819
:100630003CB000F0B9FA08230BA950460F940B9375
:1006400000F0B2FA80230BA928460F940B9300F018
:10065000ABFA0BA93846CDF82C9000F0A5FA0BA9FF
:100660002846CDF82C8000F09FFA4FF480430BA968
:1006700038460B9300F098FA32460F215C2000F0C8
:100680003DFA5C2000F06CFA11B0BDE8F08F00BFBD
:10069000004402580014025800180258000C025876
:1006A000001C025800B54FF4407395B04FF04072F3
:1006B00011480C9305230F920222069300230B92FC
:1006C00006A913930093049303926A46CDE90D3370
:1006D000CDE91133102302934FF48003059340F2C8
:1006E0000113019341F2883300F0D9FD003018BFA7
:1006F000012015B05DF804FB5C04002000B54FF448
:10070000407395B041F2883217480C93062306A92E
:1007100006930023CDE90D330F930B931393CDE98B
:10072000113300F0BCFCE8B940F2022302224FF47E
:10073000800104900C48CDE900331023CDE902324A
:1007400005236A46CDE905134FF0407306A90F93C0
:1007500041F2883300F0A3FD003018BF012015B02E
:100760005DF804FB0120FAE75C0400202DE9F0436A
:100770007D4C9DB07D4B2046236000F074FC074605
:1007800008B10124ECE0FFF78BFE01250323C4E947
:1007900001351023E3604FF0006393FAA3F3B3FA3B
:1007A00083F34FF440762046E761013B2361402309
:1007B000C4E90567236200F0F7FB0028E1D14FF49C
:1007C00080774FF06609099041F2883205906946BA
:1007D0000D900697CDF80090CDE90700CDE90B000C
:1007E000204600F05CFC0028CBD14FF0990841F284
:1007F000883269462046CDF8008000F050FC002881
:10080000BFD141F28832694620460696CDF8009065
:1008100000F045FC0028B4D141F2883269462046F8
:10082000CDF8008000F03BFC0028AAD135231790BA
:10083000139041F288321B900EA914970E93CDE9C4
:100840001500CDE91900204600F029FC002898D1B8
:10085000FFF728FF002894D1B723149617900E9322
:1008600013901B90CDE91500CDE91900FFF746FF65
:10087000002886D141F288320EA9204600F00FFCF4
:1008800000287FF47EAFFFF70DFF00287FF479AFDB
:1008900085234FF440764FF04075ADF800000E937D
:1008A0000223139041F288320EA914961795CDE9D0
:1008B0001500CDE91830CDE91A002B4800F0EFFB08
:1008C00000287FF45EAF41F288326946264800F086
:1008D00085FC00287FF455AFFFF710FF0446002881
:1008E0007FF44FAF812341F288320EA91E480E9348
:1008F000BDF8003023F0F0031B051B0D43F400434B
:1009000043F08003ADF8003000F0C9FB00287FF40D
:1009100038AF41F288326946134800F003FC0028E2
:100920007FF42FAFED236A460EA90F480E934FF4C4
:1009300040631B9415934FF4405314961193052371
:10094000CDE9164513934FF000454FF08043CDE9B4
:100950000044CDE9195300F0F7FC002818BF01242A
:1009600020461DB0BDE8F0835C040020005000521A
:100970007047FEE7FEE7FEE7FEE770477047704707
:1009800000F092B81849194810B5D1F8883043F4EE
:100990007003C1F88830164B1A6842F001021A60E1
:1009A00000221A611C68204018609A61DA611A629C
:1009B0009A62DA621A635A639A63DA631A645A644F
:1009C000186820F4802018601A660A4B1B681B0CFC
:1009D0001B04B3F1005F02D2074B01221A604FF0F3
:1009E00000638B6010BD00BF00ED00E07FEDF6EA14
:1009F000004402580010005C08810051704700005C
:100A000038B50F4B0546187808B9012038BD4FF4AA
:100A10007A730C4AB3FBF0F31068B0FBF3F000F00C
:100A2000ADF804460028F0D10F2DEED80246294635
:100A30004FF0FF3000F062F8034B20461D60E5E701
:100A400008000020000000200C00002010B503204A
:100A500000F042F800F03CFF0F49104A8B69C3F3E5
:100A60000323D35C03F01F03D8400D4B18608B6940
:100A700003F00F03D35C03F01F03D840094B186049
:100A80000F20FFF7BDFF044618B9FFF7B7FF204658
:100A900010BD0124FBE700BF00440258201E0008DF
:100AA0000000002004000020034A044B11681B785A
:100AB0000B441360704700BFA8040020080000200A
:100AC000014B1868704700BFA8040020014B18684C
:100AD000000C70470010005C074A0002D36800F465
:100AE000E06023F4E0631B041B0C43F0BF6343F49A
:100AF00000330343D360704700ED00E0164B70B540
:100B0000DC684FF0FF36C4F30224C4F10705231D4F
:100B1000042D28BF0425062B06FA05F38CBF033CE1
:100B20000024002821EA030303FA04F306FA04F47C
:100B300022EA040443EA04034FEA0313DBB206DBB0
:100B400000F1604000F5614080F8003370BD00F0B6
:100B50000F00024A1354F9E700ED00E014ED00E045
:100B6000002808DB4209012300F01F0003FA00F00F
:100B7000014B43F82200704700E100E00138B0F17A
:100B8000807F0AD2064BF021064A5860002082F886
:100B90002310072298601A6070470120704700BF39
:100BA00010E000E000ED00E04FF0B04C00232DE934
:100BB000F74F724EE246DFF8D0B10A6832FA03F41A
:100BC00002D103B0BDE8F08F4FF0010E0EFA03FE24
:100BD0001EEA020200F0BD804C6824F01004022CD2
:100BE00014D14FEAD30803F007090F2500EB88085A
:100BF0004FEA8909D8F8204005FA09F524EA0505E5
:100C00000C6904FA09F42C43C8F820404FEA430861
:100C10004FF003094C6809FA08F9056804F0030469
:100C20006FEA090904FA08F409EA05052C4304608F
:100C30004D6825F01005013D012D11D88468CD685F
:100C400009EA040405FA08F525438560446824EAA6
:100C50000E0E4C68C4F300149C4044EA0E04446039
:100C6000C46809EA04098C6804FA08F444EA09042F
:100C7000C4604C68E4006CD5414D03F0030E4FF0A6
:100C80000F08D5F8F4404FEA8E0E44F00204C5F880
:100C9000F440D5F8F44023F0030505F1B04504F025
:100CA000020405F580650194019C08FA0EF4D5F85C
:100CB000089029EA0408334CA0424CD004F5806423
:100CC000A0424AD004F58064A04248D0584548D09C
:100CD00004F50064A04246D004F58064A04244D0EC
:100CE00004F58064A04242D004F58064A04240D064
:100CF00004F58064A0423ED004F58064A0420CBF9D
:100D000009240A2404FA0EF444EA0804AC60D5432A
:100D10004F683468FF034CBF14432C4034604F6865
:100D20007468BF034CBF14432C4074604F68DCF8F8
:100D30000040FF024CBF14432C40CAF800404F68EB
:100D4000DAF80440BF0254BF05EA04022243CCF89B
:100D50000420013331E70024D4E70124D2E7022440
:100D6000D0E70324CEE70424CCE70524CAE7062411
:100D7000C8E70724C6E70824C4E700BF800000587E
:100D80000044025800000258000C025838B5104CBC
:100D9000E36813F0040FE36805D103F00703181AA2
:100DA00018BF012038BD23F007031843E060FFF7A8
:100DB00087FE054663689B0401D50020F2E7FFF734
:100DC0007FFE401BB0F57A7FF4D90120EAE700BF2F
:100DD000004802584B6A2DE9F04733B1B2F1406F39
:100DE00003D08B6A0468013B23618B690C6A002B7A
:100DF00067D00568002C35D08B68EB61CC694B6AF5
:100E000005688F69D1F820C0D1F83480D1F810E09E
:100E10000E68D1E90BA9A4B144EA0A04144344EAD8
:100E2000090444EA08042343CC6843EA0E0343EA76
:100E30000C0323433B434C69334343EA84436B61D4
:100E40002AE04AEA0904144344EA0804234343EA33
:100E50000E0343EA0C033B4333434E6943EA8646A1
:100E60006E612CE04E69CC69D1F80090B604D1F8DF
:100E700024804F6BD1E90BECACB11C43CB6814431D
:100E800044EA090444EA080444EA0E0444EA0C046F
:100E90003C431C4334436C61B2F1406F0FD0036894
:100EA0004A689A610BE043EA0903134343EA0803E3
:100EB00043EA0E0343EA0C033B4333436B61BDE853
:100EC000F08744B303688C68DC61CC69D1F8248076
:100ED00005688E69D1F820C04B6BD1F810E0D1E9DC
:100EE0000B796CB13C43144344EA09042343CC68B6
:100EF00043EA080343EA0E0343EA0C0323439AE759
:100F000047EA09042243134343EA080343EA0E0372
:100F100043EA0C03A0E7CD694B6A7DB12B43CD6A50
:100F2000046813432B430D6B2B434D6B2B43CD6850
:100F30002B434D6943EA85436361ADE7002BBED087
:100F4000CC6A0068234313430A6B13434A6B134371
:100F50004A6943EA82434361B1E72DE9F041069DC6
:100F600004460F461646984621688A683A4214BFDE
:100F700001220022B24201D1002011E06B1CF4D00A
:100F8000FFF79EFDA0EB0800A84201D8002DEBD191
:100F90000423012084F84130636C43F0010363644F
:100FA000BDE8F0817047000037B50446FFF788FDC3
:100FB0000546002C4FD094F84030012B4DD0012332
:100FC00084F8403094F8412002F0FF033AB984F8E5
:100FD00040302046FFF7E6FF41F28833A3642068E3
:100FE000A1680268013922F4706242EA01222021DC
:100FF00002600022A36C204600932B46FFF7ADFF52
:1010000020BB2168E569E3680A682B43256A22F062
:101010007F422B43656822F0D00243EA0563134305
:101020000B602168D4E905324D681343226943EA15
:1010300002430B4A2A4013434B602268136843F073
:10104000010313600123606484F84130002384F8B5
:10105000403003B030BD0120FBE70220F9E700BFBC
:10106000FEF8E0FF704710B50446A0B190F840309C
:10107000012B12D00268012380F84030136823F05E
:1010800001031360FFF7EEFF0020606484F8410065
:1010900084F8400010BD0120FCE70220FAE72DE9AA
:1010A000F34704468A469146FFF70AFD94F840301C
:1010B0008046012B34D00123022784F8403094F875
:1010C0004160F6B29E4229D100220346CDF800903D
:1010D00020216264204684F84170FFF73EFF0546F8
:1010E000A8B9024651462046FFF774FEDAF82430CC
:1010F0005BB9CDF800904346324639462046FFF7AB
:101100002CFF054618B92368DF6084F8416000238E
:1011100084F84030284602B0BDE8F0873D46F6E747
:101120000225F7E72DE9F341044688461746FFF705
:10113000C7FC94F840300646012B4DD001232568AA
:1011400084F8403094F84100C0B2984242D1002364
:101150006364B8F1000F38D0122384F841302B6952
:101160000133E3622B69C4F824800133A3626B6905
:1011700023F040636B61E36A9BB900973346012219
:1011800002212046FFF7E9FE10B923680222DA6047
:10119000012384F84130002384F8403002B0BDE8D8
:1011A000F08100973346012204212046FFF7D5FE47
:1011B0000028EDD1636A1B7885F82030636A01331B
:1011C0006362E36A013BE362D5E7636C43F00803C3
:1011D0006364E0E70220DEE70220DFE72DE9F34168
:1011E000044617468846FFF76BFC25680646AA6941
:1011F00094F84030012B50D0012384F8403094F80B
:101200004100C0B2984246D100236364B8F1000F98
:101210003CD0222384F841302B690133A3632B692E
:10122000C4F83080013363636B6923F0406343F09B
:1012300080636B6123689A61A36B9BB90097334607
:10124000012202212046FFF788FE10B923680222FE
:10125000DA60012384F84130002384F8403002B082
:10126000BDE8F08100973346012206212046FFF7B2
:1012700074FE0028EDD195F82020236B1A70236BA3
:1012800001332363A36B013BA363D5E7636C43F096
:1012900008036364E0E70220DEE70220DFE72DE9D0
:1012A000F7430446984689461646FFF709FC94F82A
:1012B00040300746012B45D0012384F8403094F894
:1012C0004150EDB29D423BD142230022CDF8008037
:1012D0002021626484F8413003462046FFF73DFE3A
:1012E00040BB2368204632689A62236872685A625B
:1012F0002368B268DA62216833690A6843F48003BC
:1013000022F4400213434FF000620B604946F36839
:10131000C9F82830FFF75EFDCDF800803B462A462D
:1013200008212046FFF719FE20B923680822DA6059
:1013300084F84150002384F8403003B0BDE8F083C6
:101340000220F7E70220F8E7F7B5044617460E46F5
:10135000FFF7B6FB94F840200346012A36D001225D
:1013600084F8402094F84120012A2DD100228221C6
:101370002046626484F84110A16C00912021FFF79F
:10138000ECFD0546D0B922687968136823F008039C
:101390000B4313607B68082B0AD123683A681A63F1
:1013A00010222368DA602268136843F48013136004
:1013B0004FF0406231462046FFF70CFD002384F8D1
:1013C0004030284603B0F0BD0225F7E70225F8E7D4
:1013D000F8B5044608B9012090E00368DD075ED443
:1013E0002368980700F1AC802368DA0623D5AB4B5D
:1013F0001A69996A02F03802082A07D0182A40F0C0
:10140000008101F00302012A40F0FB801B68DB052C
:1014100002D5E369802BDED1FFF758FB41F20303CD
:101420009E4A9842216A00F2E580536823F0F8430F
:1014300043EA816353602368190700F11B81236825
:101440009A0600F1408123685D0722D5944D2B68F0
:1014500043F480732B60FFF733FB06462B68DA05F5
:1014600040F15681A2688D4B012A40F058811A6FD5
:1014700042F001021A67A368002B00F06781FFF7B2
:101480001FFB864D064641F288372B6F9B0740F1C4
:101490005681606A002840F0698100202EE07F4B71
:1014A0001A69996A02F03802102A05D0182A0AD15E
:1014B00001F00302022A06D11B68990390D56368E4
:1014C000002B8DD187E76268744BB2F5803F16D14F
:1014D0001A6842F480321A6063680BB3FFF7F0FABF
:1014E0006E4D064641F288372B689A033FF578AF78
:1014F000FFF7E6FA801BB842F6D90320F8BD3AB9E7
:101500001A6822F480321A601A6822F48022E2E714
:10151000B2F5A02F1A68F4D142F480221A60D7E7FE
:10152000FFF7CEFA5D4D064641F288372B689B03E4
:101530007FF556AFFFF7C4FA801BB842F6D9DCE757
:10154000564B1A69996A12F0380203D0182A1BD137
:101550008E0719D11B685D0703D5E368002B3FF4A4
:101560003AAFFFF7B3FA41F203034C4A98422169BC
:10157000536895BF23F47C3323F0FE4343EA0133E1
:1015800043EA016353602FE7444DE2682B680AB3D6
:1015900023F0190313432B60FFF792FA06462B68DA
:1015A000580711D5FFF792FA41F2030322699842D6
:1015B0006B6895BF23F47C3323F0FE4343EA023388
:1015C00043EA02636B600FE7FFF77AFA801B022899
:1015D000E5D992E723F001032B60FFF771FA064685
:1015E0002B6859077FF500AFFFF76AFA801B0228C6
:1015F000F6D982E7D36823F07C5343EA0163D360D2
:1016000019E7E369254D23B32B6843F080032B6072
:10161000FFF756FA06462B68DF050DD5FFF756FA99
:1016200041F20303226A98420CD86B6823F0F84316
:1016300043EA82636B60FEE6FFF742FA801B0228F2
:10164000E9D95AE7EB6823F07C5343EA0263EB6085
:10165000F1E62B6823F080032B60FFF731FA064692
:101660002B68D8057FF5E7AEFFF72AFA801B022822
:10167000F6D942E76369094DA3B16B6F43F00103EB
:101680006B67FFF71DFA06466B6F9B073FF5D7AEFA
:10169000FFF716FA801B0228F6D92EE700440258FD
:1016A000004802586B6F23F001036B67FFF708FADD
:1016B00006466B6F9F077FF5C2AEFFF701FA801BEE
:1016C0000228F6D919E7A369804D83B12B6843F44A
:1016D00080532B60FFF7F4F906462B6898043FF51A
:1016E000B2AEFFF7EDF9801B0228F6D905E72B68AB
:1016F00023F480532B60FFF7E3F906462B68990427
:101700007FF5A1AEFFF7DCF9801B0228F6D9F4E6DD
:10171000FFF7D6F9801B64287FF6A0AEEDE63AB954
:101720001A6F22F001021A671A6F22F00402A1E672
:10173000052A1A6FF5D142F004021A6797E6FFF7FF
:10174000BFF9801BB8427FF6A0AED6E6FFF7B8F926
:101750005E4D064641F288372B6F98077FF599AEAC
:10176000FFF7AEF9801BB842F6D9C6E6574D2B6994
:1017700003F03803182B7AD02B68022823F08073EB
:101780002B6067D1FFF79CF906462B6899015BD463
:10179000AB6AA26A23F47C7323F003031343E26A67
:1017A00043EA0213AB62636BA26B013B013A5B023B
:1017B00012049BB202F4FE021343226B013AC2F3FD
:1017C00008021343E26B013A120602F0FE42134391
:1017D0002B63EB6A23F00103EB626B6BA26C23F4C7
:1017E0007F4323F0F80343EAC2036B63EB6A226C86
:1017F00023F00C031343EB62EB6A626C23F00203E9
:10180000324C1343EB62EB6A43F48033EB62EB6AD6
:1018100043F40033EB62EB6A43F48023EB62EB6A40
:1018200043F00103EB622B6843F080732B60FFF7FA
:1018300047F9054623689A013FF52FAEFFF740F9B7
:10184000401B0228F6D958E6FFF73AF9801B022818
:101850009BD952E6FFF734F904462B689B017FF5CC
:101860001CAEFFF72DF9001B0228F6D945E601282A
:10187000AA6A2B6B3FF442AE02F00301A06A8142D8
:101880007FF4A9ADC2F30512E16A8A427FF4A3ADE9
:10189000226BC3F30801013A91427FF49CAD626B65
:1018A000C3F34621013A91427FF495ADA26BC3F395
:1018B0000641013A91427FF48EADE06BC3F30663BB
:1018C0000138181A18BF012018E600BF004402585A
:1018D000464B10B51A6902F03802102A00F08480D5
:1018E000182A0CD00AB1424810BD1A68414812F0BB
:1018F000200FF9D01B68C3F3C103D840F4E7996AFD
:10190000986ADA6AC0F305105C6B0028ECD007EE29
:10191000900A02F00102C4F3CC00B7EE006AF8EEC0
:10192000E76A424307EE902A01F00302012AFAEE29
:10193000E97A02D00FD3022A48D01B6BC3F3080305
:1019400007EE103AB8EEC77A77EE277A77EE867A06
:101950009FED296A37E01A68920627D51968254A4B
:10196000C1F3C1011B6BCA40C3F3080307EE102A81
:10197000F8EEC75A85EEA67A06EE903AF8EEE66AD9
:1019800076EEA77A77EE867A184B67EE877A1B6B2E
:10199000C3F34623013307EE103AF8EEC76A87EE29
:1019A000A67AFCEEC77A17EE900A9DE71B6BC3F38D
:1019B000080307EE103AB8EEC77A77EE277A77EE8B
:1019C000867A9FED0E6A86EE267ADDE71B6BC3F3FF
:1019D000080307EE103AB8EEC77A77EE277A77EE6B
:1019E000867A9FED076AEEE706487DE700440258D5
:1019F00000093D000090D0030024744A0024744C78
:101A000020BCBE4B40787D012DE9F0410D460446D7
:101A100010B90120BDE8F081884A136803F00F0374
:101A20008B42C0F0928023685E0700F19A802368A1
:101A300018070BD5824A6069D16901F070018842AC
:101A400004D9D36923F070030343D3612368D90613
:101A50000BD57B4AA069D16901F4E061884204D9C1
:101A6000D36923F4E0630343D36123689A060BD55B
:101A7000734AE069116A01F07001884204D9136A5F
:101A800023F070030343136223689B070BD56C4A52
:101A9000E068916901F00F01884204D9936923F04D
:101AA0000F03034393612368DF0768D423689E070D
:101AB00000F19B80614A136803F00F03AB4200F210
:101AC000A2802368580700F1AA80236819070BD564
:101AD0005B4A6069D16901F07001884204D2D36920
:101AE00023F070030343D3612368DA060BD5544A0D
:101AF000A069D16901F4E061884204D2D36923F47A
:101B0000E0630343D36123689B060BD54C4AE0692D
:101B1000116A01F07001884204D2136A23F0700345
:101B200003431362FFF7D4FE454B464A9B69C3F358
:101B30000323D35C03F01F03D840434B1860434B8F
:101B4000BDE8F0411868FEF75BBF136823F00F0390
:101B50000B431360136803F00F038B427FF459AFFC
:101B600061E7374A2069916901F0700188427FF688
:101B70005EAF936923F070030343936157E7304BE3
:101B8000A1689A6922F470620A439A6161681A68CE
:101B900002291DD112F4003F3FF43BAF1A6941F214
:101BA0008838274E22F007020A431A61FEF788FFA1
:101BB00007463369626803F03803B3EBC20F3FF4A2
:101BC00075AFFEF77DFFC01B4045F2D9032021E72A
:101BD000032902D112F0007FDEE7012902D112F4BD
:101BE000807FD9E712F0040FD6E7154AE0689169C3
:101BF00001F00F018842BFF45DAF936923F00F033A
:101C00000343936156E7136823F00F032B431360DC
:101C1000136803F00F03AB427FF4FBAE51E7084AB1
:101C20002069916901F070018842BFF44EAF936959
:101C300023F070030343936147E700BF0020005285
:101C400000440258201E0008000000200C00002064
:101C5000DFF834D0002103E00C4B5B5843500431D3
:101C60000B480C4B42189A42F6D30B4A02E0002371
:101C700042F8043B094B9A42F9D3FEF783FE00F089
:101C800011F8FEF729FB704700000220401E0008F3
:101C9000000000203C0400203C040020D004002070
:101CA000FEE7000070B50D4E0D4D761BB61006D048
:101CB0000024013455F8043B9847A642F9D1094E57
:101CC000094D761B00F0A0F8B61006D000240134B0
:101CD00055F8043B9847A642F9D170BD341E000860
:101CE000341E00083C1E0008341E0008024B13B1CD
:101CF000024800F005B87047000000000D1D000804
:101D0000002301461A46184600F01EB838B50A4CA2
:101D10000A4D641BA4100AD004F18043013B05EB7B
:101D20008305013C55F804399847002CF9D1BDE8EA
:101D3000384000F06FB800BF401E00083C1E00088D
:101D4000704700BF704700BF2DE9F8432B4D064692
:101D5000286898460F469146FFF7F2FF284B1C680B
:101D6000D4F84831002B3DD05A681F2A0DDC02F10F
:101D7000010C16BB0232C3F804C0286843F8227075
:101D8000FFF7E0FF0020BDE8F8831E4B7BB34FF464
:101D9000C870AFF30080034648B3D4F8482100214F
:101DA000C0E900214FF0010CC4F848010A46C0F810
:101DB0008811C0F88C11002EDCD003EB82010124C5
:101DC000C1F88890D3F8880194402043022EC3F8CC
:101DD0008801C1F80881CDD1D3F88C110C43C3F828
:101DE0008C41C7E704F5A673C4F84831BCE72868FE
:101DF000FFF7A8FF4FF0FF30C5E700BF3804002011
:101E0000301E000800000000F8B500BFF8BC08BC98
:101E10009E467047F8B500BFF8BC08BC9E467047A8
:101E20000000000001020304010203040607080980
:101E300010000020ED1C0008BD02000899020008F7
:101E40000090D0030090D0030100000010000000BB
:101E500000000000FC02002064030020CC030020EE
:101E60000000000000000000000000000000000072
:101E70000000000000000000000000000000000062
:101E80000000000000000000000000000000000052
:101E90000000000000000000000000000000000042
:101EA0000000000000000000000000000000000032
:101EB0000000000000000000000000000000000022
:101EC0000000000000000000000000000000000012
:101ED0000000000000000000000000000000000002
:101EE00000000000000000000000000000000000F2
:101EF00000000000000000000100000000000000E1
:101F00000E33CDAB34126DE6ECDE05000B000000A5
:101F100000000000000000000000000000000000C1
:101F200000000000000000000000000000000000B1
:101F300000000000000000000000000000000000A1
:101F40000000000000000000000000000000000091
:0C2270000000000000000000AC04002092
:0200000490006A
:100000000000082421AB0090F7210090F921009016
:10001000FB210090FD210090FF21009000000000D6
:10002000000000000000000000000000819C009023
:100030000122009000000000119D0090759D00902D
:1000400071AB009071AB009071AB009071AB009000
:1000500071AB009071AB009071AB009071AB0090F0
:1000600071AB009071AB009071AB009005220090D5
:100070001122009071AB009071AB009071AB0090B9
:1000800071AB009071AB009071AB009071AB0090C0
:1000900071AB009071AB009071AB009071AB0090B0
:1000A00071AB009071AB009071AB009071AB0090A0
:1000B00071AB009071AB009071AB009071AB009090
:1000C00071AB009071AB009071AB009071AB009080
:1000D00071AB00901D22009071AB009071AB00904D
:1000E00071AB009071AB00900000000071AB00900C
:1000F00071AB009071AB009071AB009071AB009050
:1001000071AB009071AB009071AB009071AB00903F
:1001100071AB009071AB00902922009071AB009000
:1001200071AB009071AB009071AB009071AB00901F
:1001300071AB009071AB009071AB009071AB00900F
:1001400000000000000000000000000000000000AF
:1001500071AB009071AB009071AB009071AB0090EF
:1001600071AB009071AB009071AB009071AB0090DF
:1001700071AB009071AB009071AB009071AB0090CF
:1001800071AB009071AB009071AB009071AB0090BF
:1001900071AB009071AB009071AB009071AB0090AF
:1001A0003522009071AB00904122009071AB00901D
:1001B00071AB009071AB009071AB009071AB00908F
:1001C00071AB009071AB009071AB009071AB00907F
:1001D00071AB009071AB009071AB009071AB00906F
:1001E00071AB009071AB009071AB009071AB00905F
:1001F00071AB009071AB009071AB009071AB00904F
:1002000071AB009071AB009071AB009071AB00903E
:1002100071AB009071AB009071AB009071AB00902E
:1002200071AB009071AB009071AB009000000000CA
:1002300071AB009071AB00900000000071AB0090BA
:1002400071AB009071AB009071AB009071AB0090FE
:1002500071AB009071AB009071AB009071AB0090EE
:1002600071AB009071AB009071AB009071AB0090DE
:1002700071AB009071AB009071AB0090000000007A
:1002800071AB009071AB009071AB0090000000006A
:080290000000000071AB0090BA
:1002A00010B5054C237833B9044B13B10448AFF3B0
:1002B00000800123237010BD2C01002400000000E9
:1002C00000DA019008B5034B1BB103490348AFF3B3
:1002D000008008BD000000003001002400DA019019
:1002E00053B94AB9002908BF00281CBF4FF0FF319D
:1002F0004FF0FF3000F072B9ADF1080C6DE904CE9B
:1003000000F006F8DDF804E0DDE9022304B07047F0
:100310002DE9F047089E04468846002B4BD18A42BF
:10032000154667D9B2FA82F24AB1C2F1200701FA42
:1003300002F320FA07F7954047EA030894404FEA92
:10034000154E230CB8FBFEF71FFA85FC0EFB178831
:1003500043EA084307FB0CF1994209D9EB1807F16E
:10036000FF3080F01B81994240F21881023F2B44FC
:100370005B1AA4B2B3FBFEF00EFB103344EA034455
:1003800000FB0CFCA44509D92C1900F1FF3380F0C7
:100390000781A44540F2048102382C4440EA07401A
:1003A000A4EB0C0400271EB1D4400023C6E900438F
:1003B0003946BDE8F0878B4209D9002E00F0EB806A
:1003C0000027C6E9000138463946BDE8F087B3FA90
:1003D00083F7002F47D18B4202D3824200F2FA808A
:1003E000841A61EB030301209846002EE0D0C6E991
:1003F0000048DDE702B9FFDEB2FA82F2002A40F0DF
:100400008F80491B4FEA154E1FFA85F80127B1FB73
:10041000FEFC230C0EFB1C1143EA014308FB0CF10C
:10042000994207D9EB180CF1FF3002D2994200F241
:10043000CD808446591AA3B2B1FBFEF00EFB101416
:1004400043EA044408FB00F8A04507D92C1900F141
:10045000FF3302D2A04500F2B6801846A4EB080490
:1004600040EA0C409FE7C7F1200CBB4022FA0CFE8B
:100470004EEA030E01FA07F420FA0CF521FA0CF308
:100480004FEA1E482543B3FBF8F92C0C08FB19333F
:100490001FFA8EFA44EA034309FB0AF49C4202FA6B
:1004A00007F200FA07F10BD91EEB030309F1FF3045
:1004B00080F087809C4240F28480A9F10209734455
:1004C0001B1BADB2B3FBF8F008FB103345EA034445
:1004D00000FB0AFAA24508D91EEB040400F1FF3321
:1004E0006BD2A24569D90238744440EA0940A0FBA6
:1004F0000289A4EB0A044C45C2464B4654D351D062
:10050000002E69D0B1EB0A0564EB030404FA0CFC7D
:10051000FD40FC404CEA0505C6E90054002747E7CA
:10052000C2F1200320FA03F7954001FA02F021FA04
:1005300003F34FEA154E3843010CB3FBFEF71FFAE5
:1005400085F80EFB173341EA034107FB08F38B42A2
:1005500004FA02F407D9691807F1FF3C2FD28B4245
:100560002DD9023F2944CB1A81B2B3FBFEF00EFB1A
:10057000103341EA034100FB08F38B4207D96918A5
:1005800000F1FF3C17D28B4215D902382944C91A11
:1005900040EA07473BE73746304609E70746E7E6C4
:1005A0001846FBE64145ABD2B8EB020A69EB0E02F6
:1005B00001381346A4E76046E9E7184695E7674621
:1005C000D1E781467CE702382C4447E7ACF1020CC6
:1005D0002B442FE7384608E73746E9E6704700BF67
:1005E00001F0FF01102A2BDB10F0070F08D010F8E4
:1005F000013B013A8B422DD010F0070F42B3F6D1E8
:10060000F0B441EA012141EA014122F007047FF000
:1006100000070023F0E80256083C85EA010586EA57
:10062000010685FA47F5A3FA87F586FA47F6A5FA93
:1006300087F68EB9EED1F0BC01F0FF0102F007029F
:1006400032B110F8013B013A83EA010313B1F8D14A
:100650000020704701387047002D06BF354603382B
:10066000073815F0010F07D1013015F4807F02BF64
:10067000013015F4C03F0130F0BC0138704700BFB5
:10068000704704387047704710B5044610211CF0BD
:10069000CDF9204610BDA0F10400F5E70022C160AD
:1006A0008260044A10B502F10804203204604260FE
:1006B00010BD00BF60DA0190704770477047704707
:1006C000704710B504464FF42C711CF0AFF920466A
:1006D00010BD000010B5044600F092FA094B2360EB
:1006E000094B1A88B4F9A0309A4205DC074B1A88E6
:1006F000B4F9A2309A4202DD012384F891302046F9
:1007000010BD00BF90DA0190B42B0124B62B012458
:100710000022026070477047704700F596730868C2
:10072000496803C37047704710B504464FF4AC7175
:100730001CF07CF9204610BD10B50446D0F85401D9
:10074000FFF7E9FF2046BDE810400DF015BA10B5DF
:100750000446D0F83C0158B10368DB68984738B1CB
:10076000D4F83C0103689B6898470023C4F83C31E7
:1007700010BD000010B5044600F04CFC014B2046B3
:10078000236010BDC4DA019000207047818070475B
:10079000C180704701817047418170477047704741
:1007A000704770477047C388D21A8388C91A036894
:1007B00012B209B210B45DF8044B1B6D18474FF626
:1007C000FF7383814FF0FF3303621368C3611060CE
:1007D00070477047704790F825201AB190F8242090
:1007E00002B1186070477047704770477047704794
:1007F000704730B4C568034644686A10ED079B68CB
:1008000004EB020048BFA25830BC48BFD358184779
:1008100043682BB183682BB9C06800F001007047B2
:100820001846704701207047838A8B4286BF00EBD1
:10083000810040680020704710B5031D848A0022A3
:1008400091B28C4208D953F8041B1046013291F83A
:1008500037100029F4D010BD4FF0FF30FBE710B582
:10086000036804461B699847011E06DB236820467F
:1008700089B2DB68BDE810401847002010BD002396
:1008800030B5858A9CB25A1CA54206D900EB840378
:100890005B6883F838101346F3E730BD838A1BB1D9
:1008A000436893F8380070471846704730B4C568FD
:1008B000034644686A10ED079B6804EB020048BFDA
:1008C000A25830BC48BFD358184743682BB183683F
:1008D0002BB9C06800F0010070471846704701202E
:1008E000704770B50D460446012128460BF016FEF0
:1008F0002368294620465B6ABDE87040184710B55A
:10090000044608211CF092F8204610BD10B504469C
:1009100040211CF08BF8204610BD10B50446102174
:100920001CF084F8204610BD10B5044610211CF0C0
:100930007DF8204610BD10B504464FF42C711CF014
:1009400075F8204610BD000008B5838A032B05D931
:10095000094B4321094A0A481CF074F800F11803B6
:100960008B6200F12803CB63838A5A1C828200EBDE
:100970008300416008BD00BF77DB0190B4DC0190CB
:10098000B0DB019070B50446C06B0D4650B10368F2
:10099000DB68984730B1E06B29460368BDE87040DA
:1009A0009B68184770BD000000F1C403994210B560
:1009B000044610D1012304F5217004F5E2740F4AB6
:1009C000042110F035F920460BF019FB2046BDE854
:1009D00010400EF057B900F58273994201D10223FD
:1009E000E9E700F5A273994201D10323E3E700F59B
:1009F000C273994201D10423DDE710BD74DB01907D
:100A000000F1C403994210B5044610D1012304F249
:100A10008A2004F501740F4A042110F009F92046D8
:100A20000BF0EDFA2046BDE810400EF02BB900F5B2
:100A30008273994201D10223E9E700F5A27399423A
:100A400001D10323E3E700F5C273994201D10423E6
:100A5000DDE710BD74DB019070B504460E4600253D
:100A6000A28AABB29A420CD904EB83035868B04215
:100A700005D090F8373013B100210BF04FFD013550
:100A8000EEE7A06B50B10368DB68984730B1A06B0C
:100A900031460368BDE870409B68184770BD000090
:100AA000094A026000228280C280028142818281E2
:100AB000C28102824282C26180F82420C0E90522FC
:100AC000012280F82520704760F8019070B5036816
:100AD00004461546DB6A98472368294620461B6B67
:100AE000BDE87040184770B504461E46BDF9105069
:100AF000FFF7ECFF2368314620465A6B9047236886
:100B0000294620469B6BBDE87040184710B5044647
:100B1000262200211CF00BF82046FFF7C1FF044BF2
:100B200020462360FF2384F826300023A36210BDF3
:100B300068F4019010B50446262200211BF0F7FF4F
:100B40002046FFF7ADFF01220023204684F8242031
:100B5000094AA36222604FF6FF7284F82C30E285C6
:100B600022866286A28684F8362084F8373084F89C
:100B70003830E36310BD00BF40F6019010B5044665
:100B8000262200211BF0D3FF2046FFF789FF094BE7
:100B90004FF47F022046A3624FF6FF73A385002324
:100BA000C4E90C32044A84F8383084F839302260C1
:100BB000E36310BD08DB0190CCF4019013460C4AAE
:100BC00070B5146805462CB90A4B35210A4A0B4802
:100BD0001BF038FF94F876200AB1E06C00B9A068E9
:100BE0000268946A0A462946A446BDE870406047F8
:100BF000C02B012400DC019022DD019043DC019038
:100C00002DE9F04F044691B000250EF085FB2246F9
:100C1000D64BE56310AE42F8403B10460892FFF712
:100C200075FF04F16C034FF6FF7704F5827804F545
:100C3000A27B18460993FFF769FF04F19803262267
:100C40002946184626F8087D03931BF070FF039889
:100C500004F5C27AFFF724FFC54B3146A4F8BE70F5
:100C6000C4F898304FF0020984F8C0700127039847
:100C70000BF023FB04F1C40318460493FFF75AFF5B
:100C80004046FFF757FF5846FFF754FF5046FFF71F
:100C900051FF04F5E27318460693FFF76FFF04F562
:100CA000017318460793FFF769FF04F51173A4F861
:100CB000585229460593AF4B059AC4F84432AE4BBF
:100CC000C4F860222422C4F85C32C4F86C32059B5C
:100CD000C4F86422C4F870322823A84AC4F87432D5
:100CE000A74BC4F87C52C4F89032C4F8A032A54B8C
:100CF000C4F88052C4F8A8324FF48873C4F898221C
:100D00002A46C4F89C52C4F8AC5200934FF4F073D6
:100D10000898C4F86872C4F87872C4F89442C4F8A9
:100D2000A442FFF7E0FE2A4629462846FFF746FF81
:100D30004FF4F073A0662A46009329464FF4487397
:100D40000998FFF7D0FE84F891502A462946284694
:100D5000FFF734FF2A46C4F8940029460398FFF7AA
:100D6000B5FE31460398ADF838500BF0A6FA04985A
:100D700019223821FFF7AAFE0DA94FF003034FF007
:100D800004020498ADF82C300B460CA9ADF83020C5
:100D900000960A460BA9ADF83890ADF834700BF008
:100DA00003FB394604980BF0B9FB84F8FC5040462D
:100DB0004E223821FFF78AFE0DA94FF003034FF0B2
:100DC000040240460096ADF82C300B460CA9ADF855
:100DD0003020ADF838900A460BA9ADF834700BF00E
:100DE000E3FA294640460BF099FB84F83C515846FB
:100DF00081223821FFF76AFE0DA94FF003034FF05F
:100E0000040258460096ADF82C300B460CA9ADF8FC
:100E10003020ADF838900A460BA9ADF834700BF0CD
:100E2000C3FA294658460BF079FB84F87C515046AA
:100E3000B5223821FFF74AFE4FF003034FF00402BA
:100E40000BA9ADF82C3050460DABADF83020009614
:100E50000CAAADF83890ADF834700BF0A5FA29461D
:100E600050460BF05BFB84F8BC5106988922722136
:100E7000DFF81491FFF72AFEFF2211461046FFF714
:100E80009DFE04F52173C4F8F401C4F80032A4F8FF
:100E9000F851A4F8845206980BF0B1F83146069840
:100EA000ADF83C50CDF838900BF0C6F80798BD224D
:100EB0007221FFF70BFEFF2211461046FFF77EFE60
:100EC00004F28A23C4F83402C4F84032A4F8385239
:100ED000A4F88A52251D07980BF091F8314607981F
:100EE000CDF83890ADF83C700BF0A6F8089928467C
:100EF00009F06EFF0999284609F06AFF0399284610
:100F000009F066FF0499284609F062FF4146284629
:100F100009F05EFF5946284609F05AFF5146284617
:100F200009F056FF0699284609F052FF079928460E
:100F300009F04EFFDDE90410FFF706FD4146059874
:100F4000FFF702FD59460598FFF7FEFC059851464C
:100F5000FFF7FAFC04F524732046C4F87C3204F54C
:100F60002873C4F8803211B0BDE8F08F88DC01909E
:100F700074F5019030DB019018DB0190A909009015
:100F800064DB0190010A009008DB01907047704714
:100F90004160704770470123037270477047704784
:100FA00010B4C468034641686210E4079B6801EB13
:100FB000020048BF8A585DF8044B48BFD358184711
:100FC00043682BB183682BB9C06800F001007047FB
:100FD000184670470120704710B504460C211BF0DD
:100FE00025FD204610BD10B504464FF4AC711BF032
:100FF0001DFD204610BD10B5044610211BF016FD46
:10100000204610BD10B50CF0DFFE0368BDE81040AF
:101010001B6B1847F8B5044617460E460CF0F6FE53
:10102000144B0025C4F854611C602946124B134E22
:101030002360134B3068C4F83851C4F83C51C4F8ED
:101040004031C4F84451C4F84851C4F84C51C4F874
:10105000507103689B689847284600F021FA33686E
:1010600093F876200AB1D86C00B9986814F093FB15
:101070002046F8BD0C2C0124A0DD0190C02B0124DA
:1010800088DD0190064BC0F84401C0F848310023C8
:10109000C0F84C3100F5A073C0F83C31704700BF78
:1010A000E51100902DE9F04707469068994688467B
:1010B00003681546DDF820A01B6A9847B0F52C7F21
:1010C00005D2424BA721424A42481BF0BBFC68684C
:1010D00003681B6A98470F2803D83F4BA8213C4A56
:1010E000F2E7E86803681B6A98470B2803D83B4B74
:1010F000A921374AE8E70CF067FE0CF06BFED9F83F
:10110000000010B10368DB689847D9F8000010B1FF
:1011100003681B689847386810B103685B69984793
:10112000D8F8000010B103685B689847386810B1C0
:1011300003681B689847D8F8000010B103689B68E3
:101140009847E868002103685B6A9847044620B125
:10115000002343600372224B0360A86800210368E8
:101160005B6A9847064608B1FFF7B4FA6868002141
:1011700003685B6A9847054610B13146FFF78EFA5F
:10118000C9F80040C8F800503E60E5B12B1DCAF810
:1011900000303046C5F808A03368F563DB6898472F
:1011A0002B6828461B689847214630460EF02FFAD8
:1011B000236820461B699847236820465B69984747
:1011C0002846BDE8F0872B46E1E700BF00DE01902E
:1011D00015E001908EDE0190CFDE019072DF01906C
:1011E000E4DD019007B5D0F8543100F59C7100930F
:1011F000044BD0F850210448FFF754FF03B05DF8CA
:1012000004FB00BF002C0124FC2B012413B5002299
:1012100049B102AB019203F8052D0268946801AA56
:10122000A04702B010BD0846FBE74089704780899F
:1012300070478088704783798088184480B27047EF
:10124000C07900F07F007047C079C0097047006A1C
:10125000704770478B888069DB0A0A6850F8230062
:101260001044704710B5C2B1137BB3B1547BD27A2E
:10127000240204F4E0641443C26998B202EB8402CD
:1012800013888B4202D192F9020010BD05D80138B3
:10129000043280B20028F3D1F7E70020F5E710B55B
:1012A000044624211BF0C2FB204610BD30B589B096
:1012B0000446BDF850500695BDF84C5005959DF874
:1012C000405004959DF83C5003959DF83850029588
:1012D0009DF8345001959DF8305000950DF092FD29
:1012E000054B20462360119BA361129BE361159B74
:1012F000236209B030BD00BF1CE1019030B5154D2F
:101300008BB02C78BFF35B8F14F001041FD12846FB
:101310001BF064FBD8B1104B012210490693104B0F
:101320000794039400940F48CDE904430423CDE9C6
:101330000844CDE9013216221423FFF7B7FF2846EF
:101340001BF058FB084A094906481BF06AFB054890
:101350000BB030BD48010024980D02900000209091
:1013600068E101904C010024000000245312009019
:10137000704708B519B900F013F8006808BD0020DF
:10138000FCE710B5044604211BF050FB204610BDBD
:101390000048704780E101900520704702207047A7
:1013A000004870477001002408B5FFF7A7FF014B04
:1013B000186008BD70010024002070470EB403B50A
:1013C00003AB002153F8042B01930DF051FB02B045
:1013D0005DF804EB03B070470CB407B504AB53F8E9
:1013E000042B01930DF044FB03B05DF804EB02B055
:1013F0007047000010B5C36B044673B3038E2BB95E
:10140000184BC021184A19481BF01CFBC38D00EB78
:1014100043035B8B0BB30EF053FE238E012B03D8DB
:10142000134BC521134AEEE7E28D40F63F10531CE3
:101430009BB2092B194688BFA3F10A0104EB4101B5
:10144000498B814209D10A2B04EB420228BF0023B9
:10145000508B04EB4303588351832046BDE8104072
:101460000EF012BDE4E1019011E30190EDE1019075
:1014700031E201903FE201900EF0C0BC10B586B0A1
:1014800002AC84E806001A460AAB21460593019394
:10149000099B0093089B0CF027F806B010BD0000D4
:1014A00038B5D8B9114B12481B681249BBB11A683C
:1014B0009C681A441C4402605A681A440A606CB161
:1014C0000D4B00221A80FFF76BFF0546FFF766FF02
:1014D0000A4B1C600A4B1D600A4B188038BD0A4B32
:1014E00003600A4B0B600A4B1C68E8E77401002498
:1014F000780100247C01002480010024102C0124A8
:10150000182C0124142C0124A40620909406209069
:10151000A0062090044B1B6853F82100034B1B6866
:1015200003EB4000704700BF7C01002478010024D9
:10153000012380F8741080F87530704700207047E0
:1015400000207047836B0BB10846184770474FF671
:10155000FF707047406803689B691847134A00236F
:10156000F0B5C2F88430BFF34F8FD2F8803043F625
:10157000E076C3F3C904C3F34E33A5075B0103EA66
:10158000060C284621464CEA0007013900F140408C
:10159000C2F874724F1CF6D1203B13F1200FEED12C
:1015A000BFF34F8FBFF36F8FF0BD00BF00ED00E0C2
:1015B000034B902283F85A2383F85823704700BFC7
:1015C00000E100E0094A0A49D3680A48C3F30A0364
:1015D000013B9BB20B801169C1F30A010139018003
:1015E0001364536B43F001035363704700100050C2
:1015F0008401002482010024014B986A704700BFD7
:1016000084100050024B0122996243F8602C70470D
:1016100084100050FFF7A2BF08B531B90A4B40F261
:101620006B210A4A0A481BF00DFAC0E90F1200327A
:101630004364084918BF012200330A7018BF012310
:10164000054A137008BD00BFBCE3019033E401906C
:10165000F4E30190BE2B0124BF2B012408B509F04F
:10166000FDFCBDE80840FFF779BF09F01EBE10B5CC
:1016700004460AF065FA23682046D3F89030BDE8A6
:101680001040184790F877301BB1406803681B681A
:10169000184718467047000030B590F8744090F82D
:1016A0003410104B8C421A780DD05AB90E4A0F499B
:1016B00014880F480C8001880E4D1180012229806A
:1016C00004801A7030BD002AFCD00948074A0188FE
:1016D000084D1180044A1488118000222C80048057
:1016E000EFE700BFB82B0124B42B0124BA2B01244F
:1016F000B62B0124BC2B0124034B4FF080629A606F
:101700004FF080729A60704700E100E0084B4FF0A4
:101710008062C3F88820BFF34F8FBFF36F8F4FF005
:101720008072C3F88820BFF34F8FBFF36F8F70476D
:1017300000E100E070B5044609F07AFF2368DD6C33
:101740000CF042FB01462046A84723682046044A85
:101750001D6F4FF050410023AC46BDE8704060471C
:1017600000FC03D0134B144A10B51B6C1188134CAA
:101770008B4213D1124B198804F08AFB226892F82D
:101780006630013382F8663000F026FA20680AF0ED
:10179000D7F90020BDE8104000F080BC04F078FBD1
:1017A000002000F097FC20680368BDE810409B69AA
:1017B000184700BF0010005084010024C02B0124F2
:1017C0008201002403685B6C18470120704703689E
:1017D0009B6A18470F4B82B0D3F8D42042F0100216
:1017E000C3F8D420D3F8D42002F010020192019A59
:1017F000DA6F42F01002DA67DA6F22F01002DA676D
:10180000054B064A1A624FF08062054B9A6002B09F
:10181000704700BF00440258103401242D18009076
:1018200000E100E040F2EF1070470000024B1B683F
:10183000586803685B691847C02B012408B50B285A
:101840000BD8DFE800F01206100A0A0A0A08080896
:101850000808012008BD0520FCE7054B6521054A65
:1018600005481BF0EFF80020F4E70220F2E700BF84
:101870009BE4019070E50190B6E4019008B50A2858
:1018800009D8DFE800F010060E080808080606066A
:101890000600012008BD054B8621054A05481BF0BE
:1018A000D1F80020F6E70220F4E700BF9BE40190A6
:1018B000BCE50190B6E40190F8B50C46487FFFF70F
:1018C000BDFF0646A77F3846FFF7B8FF05463846F6
:1018D000FFF7D4FF238AE28AD21A4F4B1A64218A77
:1018E000E28A521A9A61218AA28A521A1A615863AC
:1018F000218A628A42EA01425A64E268DA636268D3
:10190000DA602268207F402A77D024D8042A3DD08C
:10191000202A72D046EA00603F4B40F40030D86184
:10192000627F0B2A74D1A1680A1DDA62DA694988DC
:1019300022F47F42013922F0100242F0100242EA02
:101940000122DA61DA6942F02002DA61DA6992068C
:101950005AD500BFFAE7802A04D0B2F5807FD9D1EA
:101960002E4A00E02E4A42EA0060D861A1690A02CC
:10197000480102F47802C90000F47C40C9B2024375
:101980000A431A625D62E2685A6133E046EA006027
:1019900040F40030D8615D62E2685A61627F0B2AD0
:1019A00027D1A1681F480A1DDA620A783AB1012AD4
:1019B00016D01D4BFC211D4A1D481BF043F8DA6967
:1019C00049880240013942EA0122DA61124BDA69A0
:1019D00042F02002DA61DA69910608D500BFFAE721
:1019E000DA6949880240013942F01002EBE710221F
:1019F0009A60094B0F4A1A60F8BD46EA0060064B30
:101A000040F40030D861BDE710229A600A4AF2E73C
:101A100040F20122EFE700BF00100052090002006F
:101A20000A000200EF00FFFF81E4019030E5019021
:101A3000B6E40190010202000102010010B5887FA6
:101A40000C46FFF71BFF254B5863218A628A42EA46
:101A500001425A64E268DA63E28A218A521A1A64FD
:101A60002268082A20D1218AE28A521A9A61218AA0
:101A7000E28A521A1A615862194A217F42EA0162C7
:101A8000DA61A1690A02480102F47802C90000F48F
:101A90007C40C9B202430A431A62E2685A61E268B2
:101AA000DA60104A1A6010BD0022D8611A61A27F64
:101AB000A1691AB99963094B0B4AF3E70A02480175
:101AC00002F47802C90000F47C40C9B202430A4320
:101AD000217F42EA01629A63EDE700BF00100052E5
:101AE000090001000102020001020300054B4FF052
:101AF00080620360044BC3F88820BFF34F8FBFF3AD
:101B00006F8F7047E8E4019000E100E010B50446F3
:101B1000FFF7ECFF4FF4426120461AF087FF2046A2
:101B200010BD000070B505460A4B0C3000262C464F
:101B3000602268602E726E7244F8203B21460AF0E3
:101B40007BF905F54263A6612034A342FBD1284608
:101B500070BD00BFE8E401900121002208B50846ED
:101B600007F0A4FD0A4B186028B90A4B25210A4A40
:101B70000A481AF067FF00220421012007F060FEE6
:101B8000074B186018B9074B2921034AF0E708BD35
:101B90008C01002409E60190BDE6019052E6019017
:101BA000880100247BE60190024B4FF0FF3118685A
:101BB00007F0D2BD8C010024014B186807F008BE65
:101BC0008C010024024B0021186807F0C5BD00BF3E
:101BD0008C010024FFF7F0BF0023034803491A4695
:101BE000006807F073BE00BF8801002404000024D1
:101BF00013B50023074C01A91A46206807F0A8FE78
:101C00004FF0FF33002201A9206807F0A1FE02B0C7
:101C100010BD00BF88010024704770477047012045
:101C200070470C2070470C2303FB010008307047FD
:101C30000C2303FB010008307047012070474FF46C
:101C40002C7070474FF42C7303FB01000830704771
:101C50004FF42C7303FB01000830704701207047DC
:101C60001020704700EB01100830704700EB0110A6
:101C7000083070470846FFF705BA0000034B10B55F
:101C80000446036008F0F8FF204610BD5CE70190B1
:101C900010B50446FFF7F2FF142120461AF0C6FEE5
:101CA000204610BD034B10B50446036008F0E4FF66
:101CB000204610BD28E7019010B50446FFF7F2FF5B
:101CC0004FF42E7120461AF0B1FE204610BD0000E0
:101CD000034B10B50446036008F0CEFF204610BD4C
:101CE000F4E6019010B50446FFF7F2FF18212046F4
:101CF0001AF09CFE204610BD084B10B50446036048
:101D000000F53970FFF7BAFF04F12C00FFF7CAFFA6
:101D100004F11400FFF7DCFF204610BD90E70190AE
:101D200010B50446FFF7E8FF40F2544120461AF090
:101D30007DFE204610BD00002DE9F341FFF728FB92
:101D400000240546FFF728FB234601462246284685
:101D500000940FF039F8274B274A2046274D1A6088
:101D6000FFF79EFB26480EF071FF2B78BFF35B8FC9
:101D7000DB0738D428461AF031FE002833D0214C36
:101D8000214B04F53E7604F1140004F12C0804F50F
:101D900039776060C4F80880E7602661236008F046
:101DA0006DFF1A4B4046636108F068FF184B3846D8
:101DB000E36208F063FF174B224604F58A61C4F81A
:101DC000E4323046FEF7D6FC04F58A60FEF7A0FC4C
:101DD0003046FFF757F928461AF00CFE0E4A0F4915
:101DE00020461AF01EFE0E4802B0BDE8F04100F099
:101DF00039B900BF1C2C0124941200249001002446
:101E0000080000249401002490E70190F4E601907A
:101E100028E701905CE7019000000024F91C009085
:101E20000C120024014800F0B7B800BF0C120024C7
:101E300010B5044604211AF0F9FD204610BD10B576
:101E4000044678211AF0F2FD204610BD10B5044674
:101E500088211AF0EBFD204610BD0000F8B5394C82
:101E6000394D3A4B22463A4F28463A492B601AF0F0
:101E7000D8FD394E3846FFF755FE224637493846D9
:101E80001AF0CFFD304612F023F82246344930468E
:101E90001AF0C7FD2246334933481AF0C2FD3348D1
:101EA000002301223249C560038580F82A30C362CD
:101EB000038680F8483080F8492080F84A3043652E
:101EC00041664FF4F07180F8683080F8693080F82E
:101ED0006A3080F86B3080F86C30036780F87530BA
:101EE00080F87630234DC0E90176C0E90433C0E9BB
:101EF0000633C0E90833C0E90E33C0E91033C0E946
:101F0000133380F8772080F878201B4AC0F880309F
:101F100010601A4A80F8343011804FF48872C0F88B
:101F200084302A80164D2B70164D174B2980174987
:101F3000C3670A80164A174902602246BDE8F84086
:101F40001AF06FBD00000024E805002460E801904D
:101F5000EC050024191C009098120024ED1A009042
:101F60001B1C009071130090080000240C12002428
:101F700001000001B62B0124C02B0124B42B012445
:101F8000B82B0124BA2B012478E80190BC2B012442
:101F9000A4E701901D1C009008B5036804469B6EE1
:101FA0009847236820461B6E9847FFF721FE236859
:101FB00020469B6D9847012204210A4805F0B2FA99
:101FC00001228021084805F0ADFA01220748114698
:101FD00005F0A8FAFFF70CFE236820469B6D984792
:101FE000F8E700BF00000258000C02580028025811
:101FF000FFF702BBFFF706BBF8B5FFF72FFB134A4D
:102000000023C2F88430BFF34F8FD2F8803043F6FC
:10201000E076C3F3C904C3F34E33A5075B0103EABB
:10202000060C284621464CEA0007013900F14040E1
:10203000C2F874724F1CF6D1203B13F1200FEED181
:10204000BFF34F8FBFF36F8FF8BD00BF00ED00E00F
:10205000FFF7AEBAFFF750BBFFF758BBFFF7B2BAB6
:1020600008F0F6BF38B50446FFF764FB04F17C05C1
:10207000284600F085F80123256184F86C3038BDCE
:1020800008B5054B01461B6800B10121184609F04F
:1020900071FD012008BD00BFC02B012410B1012833
:1020A00009D07047084B042108481A68B2FA82F236
:1020B000520905F037BA044B4FF4005104485A68EE
:1020C000B2FA82F25209F4E71013002400240258F5
:1020D0000020025810B1012809D07047084B042194
:1020E00008481A68003218BF012205F01BBA044BD9
:1020F0004FF4005104485A68003218BF0122F4E737
:1021000010130024002402580020025810B10128A6
:1021100004D070470421034805F009BA4FF4005178
:102120000148F9E700240258002002581FB508238F
:1021300000204FF4F0726946CDE902304FF4887305
:10214000CDE9002308F0FEF905B05DF804FB30B5D9
:1021500085B000200D46144601A90390CDE9010089
:1021600008F078FA019820B1029B01202B60039BB4
:10217000236005B030BD4068704741607047000083
:10218000094A136843F080731360A2F54E42074B6F
:102190004C3A11680B431360A2F57B62136843F05D
:1021A00001031360704700BFFCED00E055CEACC5E5
:1021B000521A02EB5302B2FBF3F07047014B18685E
:1021C000704700BF041000E0704710B504460C21B2
:1021D0001AF02CFC204610BD10B5036804461B699C
:1021E00031B19847A26863689B1A1844606010BDBB
:1021F0009847A060FBE77047FEE7FEE7FEE7FEE7D3
:1022000070470000014804F01DBA00BFDC32012411
:10221000014804F017BA00BF64320124014802F0FB
:10222000A9BC00BF54330124014805F0F5BA00BF32
:10223000C4340124014803F0A1BD00BF883101244A
:10224000014805F0BDB900BF1034012417491848F2
:1022500010B5D1F8883043F47003C1F88830154BBD
:102260001A6842F001021A6000221A611C682040BC
:1022700018609A61DA611A629A62DA621A635A63C2
:102280009A63DA631A645A64186820F4802018602C
:102290001A66094B1B681B0C1B04B3F1005F02D2CA
:1022A000064B01221A60064B8B6010BD00ED00E06A
:1022B0007FEDF6EA004402580010005C08810051EE
:1022C0000000009008B5012007F0D6F9FBE70000F8
:1022D000F0B5CDB04C2200210AA81AF028FC20222B
:1022E000002102A81AF023FCBC2200211DA81AF02C
:1022F0001EFC022001F07AFD00230193314B9A6904
:1023000042F440429A619A6902F4404201922E4A94
:10231000D16A41F00101D162D26A02F00102019258
:10232000019A9A699404FCD5284A092702250024B9
:10233000936A01260AA823F0030343F00203936281
:102340004FF4803305220F9617951C94CDE90A733C
:10235000C023CDE915231423CDE918350823CDE991
:102360001355CDE91A3401F027FF03233F2102A8BA
:10237000CDE902133146CDE90447CDE90644CDE964
:10238000084402F043FA124B4FF440604FF48012BD
:102390001D930C233E9226952F94CDE927354FF4BB
:1023A0000073CDE92B031DA84993CDE92956CDE94A
:1023B0002D44CDE93A4400F019FF01F03BFD4DB04A
:1023C000F0BD00BF00480258000400580044025805
:1023D000030044232DE98048A7B0102200210124E6
:1023E00019A84FF010451AF0A2FB1B2604F028FE96
:1023F0004FF0105CD74B19A8ADF86440DFF88C8320
:10240000CDE91AC3D44B1C9304F03CFE40F20113F7
:1024100019A81C94ADF86430CDE91A5604F032FEC8
:1024200040F20123DFF868E319A8ADF86430CB4B24
:102430001A954FF05045CDE91BE304F023FE40F21E
:10244000013319A81C94ADF86430CDE91A5604F094
:1024500019FE40F2014319A81A95ADF864304FF007
:102460000113CDE91B8304F00DFE042004F0F8FDF8
:10247000BFF34F8FBFF36F8FB94B0021C3F85012DA
:10248000BFF34F8FBFF36F8F5A6942F400325A6126
:10249000BFF34F8FBFF36F8FC3F88410BFF34F8F1D
:1024A000D3F8802043F6E076C2F3C904C2F34E327B
:1024B000A507520102EA060C2846214640EA0C070D
:1024C000013900F14040C3F860724F1CF6D1203A48
:1024D00012F1200FEED1BFF34F8F5A6942F48032D0
:1024E0005A61BFF34F8FBFF36F8F00F037FDFFF7D7
:1024F000EFFE62B69B4D1422002119A81AF017FBBB
:10250000D5F8E0300022802143F48063964800240F
:102510000126C5F8E0300327D5F8E0304FF0040974
:102520004FF0050A4FF4806B03F480634FF0FF080F
:102530000193019BD5F8E03043F04003C5F8E0304B
:10254000D5F8E03003F040030293029BD5F8E03069
:1025500043F00403C5F8E030D5F8E03003F004039D
:102560000393039BD5F8E03043F48073C5F8E03063
:10257000D5F8E03003F480730493049BD5F8E03081
:1025800043F01003C5F8E030D5F8E03003F0100355
:102590000593059BD5F8E03043F00203C5F8E03021
:1025A000D5F8E03003F002030693069BD5F8E0303F
:1025B00043F40073C5F8E030D5F8E03003F400735D
:1025C0000793079BD5F8E03043F00803C5F8E030E7
:1025D000D5F8E03003F008030893089BD5F8E03005
:1025E00043F00103C5F8E030D5F8E03003F0010313
:1025F0000993099BD5F8E03043F02003C5F8E0309B
:10260000D5F8E03003F020030A930A9BD5F8E030B8
:1026100043F08003C5F8E030D5F8E03003F08003E4
:102620000B930B9B04F07EFF01224FF400514F48A7
:1026300004F078FF01224E48114604F073FF002297
:1026400004214C4804F06EFF012204214A4804F0A2
:1026500069FF802319A94448CDE91936CDE91B4407
:1026600004F0D6FD4FF4005319A940481C971B965F
:10267000CDE9193604F0CCFD19A93D48CDE919661C
:10268000CDE91B4404F0C4FD19A93A48CDE91996D7
:10269000CDE91B4404F0BCFD19A93748CDE91996D2
:1026A000CDE91B6704F0B4FDD5F8D83022460521EA
:1026B00033430B204FF40477C5F8D830D5F8D83021
:1026C0002E4D33400093009B04F066FC0B2004F079
:1026D00095FC224605210C2004F05EFC0C2004F041
:1026E0008DFC2748274B848003600662C0E90544BF
:1026F00001F040FB342221460CA81AF018FA3422CB
:10270000214619A81AF013FA1F4B27222A2140F25A
:102710000A202C61AC8685F83640C5E900340823D0
:10272000C5E905230B23C5E9071340F21B13C5E9CF
:10273000090340F21D132846C5E90B73C5E902449D
:1027400003F0A0FA4FF4F07202274FF488730CA93B
:1027500028461FE0120000030100010100000101F2
:1027600000ED00E000440258000C0258002002581E
:102770000028025800000258002402588831012421
:1027800060310124004C0258001000501800000372
:102790001A00000317930C94ADF860408DF8624066
:1027A000CDE90D24CDE915422246CDE90F37CDE91B
:1027B00013BACDE9118403F042FB324619A9284629
:1027C0006A4DADF894408DF89640CDE91F4BCDE9A8
:1027D00021A4CDE91944CDE91B44CDE91D44CDE93F
:1027E000234403F02CFB624BEC652846DFF8D0B1A4
:1027F000C5E91147C5E91344C5E91544C5E90034E5
:10280000C5E90274C5E9064404F098FE314628463D
:10281000584D04F065FF5848584B4FF0100C4FF4DA
:10282000006E19A984621997C0E900364023C0E9F7
:1028300004C34FF4C073C0E906344FF48053C0E9B9
:1028400008E30723C0E90249CDE91A39CDE91C3A6A
:10285000CDE91E7703F004F9204607F03BFD204642
:1028600007F082FDDFF85C914FF4165328462C6187
:10287000DFF854A1C5E900934FF00C09C5E9024403
:10288000C5E90594C5E90744C5E9094402F0EBFC34
:102890002146284604F020FB2146284604F041FB4F
:1028A000284604F0FAFA3648364B374D0461446145
:1028B000C0E900347F23C0E90644C0E9023803F0D0
:1028C00085F84FF4E1332846AC62C5E900A3C5E9B9
:1028D0000244C5E90449C5E90644C5E9084402F0D3
:1028E000C2FC2146284604F0F7FA2146284604F0A7
:1028F00018FB284604F0D1FA244809230463C0E9F0
:1029000000B3C0E90374C0E90674C0E90844C0E933
:102910000A4405F0EEF805F077F906F01DFE1C4AB2
:102920003146304606F0C2FE1A4B1B4A314618604B
:10293000304606F0BBFE194B194A31461860304646
:1029400006F0B4FE174B184A21461860174806F0E7
:102950003DFE174B174A21461860174806F036FE11
:10296000164B186006F012FEFEE700BF103401247B
:1029700000100052543301243032012440410052EF
:10298000E033012400400058C82C0124542D0124B8
:10299000CCE801900434012410E901900C340124A6
:1029A00000E9019008340124DCE801900D7C0090DE
:1029B00084310124A8E80190C52200905C310124F3
:1029C0000000084000100140004800400268034B2E
:1029D0009A4201D100F0F0BA704700BF00100040E9
:1029E000704700000F2810B504468AB002D90120B4
:1029F0000AB010BD01460022362004F0CDFA362080
:102A000004F0FCFA184B694602A81C60174BD3F877
:102A1000E82042F01002C3F8E820D3F8E83003F0D1
:102A200010030193019B02F067F8079BC3B902F002
:102A30003FF80F4C0F4B236040F2E733E3600E4B3F
:102A4000B0FBF3F001380023606020462361A360EF
:102A500004F0FCFF0028CAD1204604F0B9FEC7E705
:102A600002F026F84000E4E7180000240044025871
:102A7000C43401240010004040420F000A4B82B0D1
:102A80000F216FF00100D3F8F42042F00202C3F8E6
:102A9000F4200022D3F8F43003F002030193019BE9
:102AA00002B004F079BA00BF00440258026882B054
:102AB000094B9A420DD1A3F50063D3F8E02042F40C
:102AC0000022C3F8E020D3F8E03003F400230193A0
:102AD000019B02B0704700BF004C025807B50F4B76
:102AE00002689A4217D10E4B05215A20D3F8D42000
:102AF00042F01002C3F8D4200022D3F8D43003F0FF
:102B000010030193019B04F047FA5A2003B05DF8CB
:102B100004EB04F073BA03B05DF804FB001000523C
:102B20000044025870B514228AB0044600210DEB0F
:102B3000020019F0FCFF22683B4B9A4271D13B4BDB
:102B400002240E2605A9D3F8E4200025384842F0D7
:102B50000802C3F8E420D3F8E42002F0080200924F
:102B6000009AD3F8E02042F48062C3F8E020D3F862
:102B7000E02002F480620192019AD3F8E02042F44E
:102B80008072C3F8E020D3F8E02002F48072029251
:102B9000029AD3F8E02042F40072C3F8E020D3F8A0
:102BA000E02002F400720392039AD3F8E02042F08E
:102BB0008002C3F8E020D3F8E030089403F08003EB
:102BC00009960493049BFC23CDE9053404F020FB13
:102BD0004DF2032305A917480996CDE90534CDE93F
:102BE000075404F015FB4FF6FB7305A9124809962C
:102BF000CDE90534CDE9075404F00AFB4FF4007326
:102C000005A90E480996CDE90534CDE9075404F02D
:102C1000FFFA58202A46052104F0BEF9582004F096
:102C2000EDF90AB070BD00BF00100050004402581A
:102C3000002802580020025800240258001C0258A4
:102C40000268044B9A4204D1034A136F43F40043D1
:102C500013677047004000580044025830B51422F2
:102C60008BB0054600210DEB020019F060FF2B68C8
:102C7000464A934262D1464BC024464805A9D3F840
:102C8000F02042F01002C3F8F020D3F8F02002F058
:102C900010020192019AD3F8E02042F00202C3F838
:102CA000E020D3F8E03003F002030293029B0223FA
:102CB000CDE905430723384C099304F0A9FA2923E9
:102CC000DFF8E8C04FF480624FF4807E2046C4E90C
:102CD00000C30023C4E904234FF44032A3616362BC
:102CE000C4E90233C4E907E203F0C0F908B1FFF711
:102CF00077FE2A23AC67A5634020284C4FF48062FE
:102D00002749C4E900130023C4E902032046C4E9AB
:102D10000423C4E90633C4E9083303F0A7F908B172
:102D2000FFF75EFE25206C6700220521A56304F0F5
:102D300033F9252004F062F90BB030BD194A9342F3
:102D4000FAD1134B05A91848D3F8E82042F48022A1
:102D5000C3F8E820D3F8E82002F480220392039A13
:102D6000D3F8E02042F00402C3F8E0204FF44062C0
:102D7000D3F8E03003F004030493049B0223CDE96D
:102D800005230723099304F043FAD5E70010014017
:102D90000044025800040258DC3201246432012449
:102DA000280002400048004000080258100002407D
:102DB00010B588B004461422002103A819F0B7FE0C
:102DC0002268144B9A4223D1134C4FF4C05203A9EA
:102DD0001248D4F8E03043F00103C4F8E030D4F8EE
:102DE000E03003F001030193019B0223CDE90323AB
:102DF0000A23079304F00CFAD4F8D83043F00063A8
:102E0000C4F8D830D4F8D83003F000630293029BA2
:102E100008B010BD000008400044025800000258ED
:102E2000F0B587B01422002101A819F080FE264BCE
:102E30001E68002E46D10122022703250C241A60A9
:102E400001A9224B2248D3F8D42042F48052C3F87F
:102E5000D420D3F8D43003F480530093009B4FF672
:102E60008373CDE90454CDE9013704F0D1F948F278
:102E7000331301A917480594CDE90137CDE903655E
:102E800004F0C6F94CF2037301A913480594CDE987
:102E90000137CDE9036504F0BBF94FF63F0301A903
:102EA0000E480594CDE90137CDE9036504F0B0F98A
:102EB000E02301A90A480594CDE90137CDE903656E
:102EC00004F0A6F907B0F0BD241300240044025812
:102ED0000010025800180258000C02580014025842
:102EE000001C025808B5134B1A6812BB01224FF69A
:102EF000837111481A60114AD2F8D43023F48053F8
:102F0000C2F8D43004F06AFA48F233110C4804F0E5
:102F100065FA4CF203710B4804F060FA4FF63F017A
:102F2000094804F05BFAE0210848BDE8084004F0D5
:102F300055BA08BD2013002400100258004402585E
:102F400000180258000C025800140258001C0258C5
:102F50000149002005F0A0BE8120009010B503209B
:102F600004F008F801F0B6FB0F49104A8B69C3F36F
:102F70000323D35C03F01F03D8408B6903F00F03D6
:102F8000D35C0B4A03F01F0320FA03F31360094BD1
:102F900018600020FFF726FD044618B9FFF76EFD04
:102FA000204610BD0124FBE70044025898E8019038
:102FB000100000240C000024034A044B11681B7805
:102FC0000B441360704700BF103501241400002427
:102FD000014B1868704700BF1035012438B504460E
:102FE000FFF7F6FF0546631C1EBF044B1B78E41871
:102FF000FFF7EEFF401BA042FAD338BD14000024B7
:10300000014B1868000C70470010005CF8B53A4C92
:1030100006460D46A36A03F00303032B69D0236819
:1030200023F080632360FFF7D3FF074623681A016C
:103030004BD4A36A326823F47C3343EA0233A3629D
:10304000B368F268013B013A5B0212049BB202F4DE
:10305000FE0213437268013AC2F308021343326955
:10306000013A120602F0FE421343A363E36A726957
:1030700023F0C0031343E362E36AB26923F0200341
:103080001343E362E36A23F01003E362E36BF26944
:1030900023F47F4323F0F80343EAC203E363E36AC4
:1030A00043F01003E362E36AB5B943F40023E3623B
:1030B000114C236843F080632360FFF789FF0546C6
:1030C00023681B010FD5002005E0FFF781FFC01B1F
:1030D0000228ABD90320F8BD012D0CBF43F48013A7
:1030E00043F40013E3E7FFF773FF401B0228E7D91F
:1030F000F0E70120EFE700BF00440258F8B53A4C72
:1031000006460D46A36A03F00303032B69D0236828
:1031100023F080532360FFF75BFF074623689A0084
:103120004BD4A36A326823F07C7343EA0253A36250
:10313000B368F268013B013A5B0212049BB202F4ED
:10314000FE0213437268013AC2F308021343326964
:10315000013A120602F0FE4213432364E36A7269E5
:1031600023F440631343E362E36AB26923F4007318
:103170001343E362E36A23F48073E362636CF269EE
:1031800023F47F4323F0F80343EAC2036364E36A52
:1031900043F48073E362E36AB5B943F48003E36206
:1031A000114C236843F080532360FFF711FF05465D
:1031B00023689B000FD5002005E0FFF709FFC01B27
:1031C0000228ABD90320F8BD012D0CBF43F4000346
:1031D00043F08073E3E7FFF7FBFE401B0228E7D9CB
:1031E000F0E70120EFE700BF004402582DE9F84363
:1031F0000668044616F0006623D0436EB3F5801FC0
:1032000018D002D883B101261BE0B3F5001F23D0EC
:10321000B3F5401FF7D19F4A0026616E136D23F46A
:1032200040130B4313650CE09A4AD36A43F400330E
:10323000D362F0E702210430FFF7E8FE06460028DB
:10324000E9D02368DD0534D5636D042B30D8DFE881
:1032500003F0080F290D0D0002212430FFF74EFF67
:10326000ECE78C4AD36A43F40033D362354604E07A
:103270000021201DFFF7CAFE0546E5B9854A616DAC
:10328000136D23F007030B4313652368980521D5BD
:10329000A36D802B3BD010D86BB3402B31D00126CF
:1032A000354617E0002104F12400FFF727FFE3E78C
:1032B00001263546E9E72E46E7E7C02B02D0B3F5F5
:1032C000807FECD14DBB734AA16D136D23F4E07385
:1032D0000B4313652368590530D5D4F8A430B3F5F2
:1032E000800F47D01BD8002B38D0B3F5001F3BD040
:1032F0000126354622E0674AD36A43F40033D3629D
:10330000E0E70021201DFFF781FE0546DAE70021F6
:1033100004F12400FFF7F2FEF7E72E46DAE7B3F5F3
:10332000C00F02D0B3F5000FE2D14DBB594AD4F81B
:10333000A410936D23F460030B43936523681A056F
:103340002FD5D4F8A830B3F1007F41D01AD89BB361
:10335000B3F1807F36D00126354622E04D4AD36A4C
:1033600043F40033D362E0E70021201DFFF74EFE57
:103370000546DAE7002104F12400FFF7BFFEF7E776
:103380002E46DBE7B3F1407F02D0B3F1806FE2D18C
:1033900025BB404AD4F8A810936D23F0E0630B439B
:1033A000936523689B0127D5A36C102B33D017D8C6
:1033B000D3B1012635461FE0364AD36A43F40033C1
:1033C000D362E5E70021201DFFF720FE0546DFE779
:1033D000002104F12400FFF791FEF7E72E46E0E715
:1033E000202B1ED0302BE4D10DBB2A4AA16CD36C0C
:1033F00023F030030B43D3642368DF0427D5E36D48
:10340000B3F5005F3ED014D883B3B3F5805F33D0FB
:10341000012635461BE01F4AD36A43F40033D362CA
:10342000E2E70221201DFFF7F1FD0546DCE72E460D
:10343000E2E7B3F5405F02D0B3F5804FE8D13DBB82
:10344000144AE16D136D23F4E0430B4313652368C5
:10345000980432D5236EB3F5003F44D01CD823B373
:10346000B3F5803F39D00126354626E0094AD36AB4
:1034700043F40033D362E2E70021201DFFF7C6FDCD
:103480000546DCE7002104F12400FFF737FEF7E7EB
:103490002E46DCE700440258B3F5802F05D0B3F583
:1034A000A02F02D0B3F5403FDDD115BB9F4A216E5E
:1034B000136D23F4E0230B431365236859042DD5C2
:1034C000D4F8AC30B3F1005F4BD014D8E3B1B3F112
:1034D000805F40D00126354620E00121201DFFF706
:1034E00095FD0546E1E7012104F12400FFF706FE02
:1034F000F7E72E46E1E7B3F1804F05D0B3F1A04FD7
:1035000002D0B3F1405FE5D1002D30D1874AD4F825
:10351000AC10936D23F0E0430B43936523681A04CA
:103520000FD5E36EB3F1805F23D0B3F1005F26D0F7
:103530005BBB6DBB7D4AE16E136D23F040530B43C3
:1035400013652368DB0133D5636C032B78D8DFE880
:1035500003F0262171260121201DFFF757FD0546A6
:10356000D2E7012104F12400FFF7C8FDF7E72E465A
:10357000D4E76E4AD36A43F40033D362D9E701211A
:10358000201DFFF743FD0546D3E701263546D8E762
:103590002E46D6E7654AD36A43F40033D362002D42
:1035A00051D1624A616CD36C23F003030B43D364A3
:1035B00023685F0251D55E4F3B6843F480733B60E4
:1035C000FFF706FD80463B68D8053ED5002D65D146
:1035D000564BD4F8B0101A6F4A4012F4407F0BD00B
:1035E0001A6F196F22F4407241F480311967196F14
:1035F00021F4803119671A67D4F8B030B3F5807FB1
:1036000038D0D4F8B000494A00F44073B3F5407F95
:1036100040D11169474B21F47C5103EA10130B434D
:103620001361424AD4F8B030116FC3F30B030B435C
:10363000136712E00221201DFFF7E8FC0546AEE704
:1036400001263546B4E72E46B2E7FFF7C1FCA0EBF2
:1036500008006428B7D9032635462368DA072DD534
:10366000A36F102B3BD01BD803B3082B31D00126FE
:10367000354623E0FFF7ACFC2C4F804641F28839F9
:103680003B6F9907BDD4FFF7A3FCA0EB08004845AA
:10369000F6D9E0E7136923F47C53C1E72E46DCE753
:1036A000202B03D0282B01D0182BE0D1EDB91F4AD5
:1036B000A16F536D23F038030B43536523689B07B9
:1036C00022D5636F052B37D8DFE803F016112A16D1
:1036D00016160121201DFFF799FC0546E6E701219A
:1036E00004F12400FFF70AFDF7E72E46E6E7012183
:1036F000201DFFF78BFC05460DBB0C4A616F536D17
:1037000023F007030B43536523685F0727D5D4F8DD
:103710009030052B39D8DFE803F019143219191944
:10372000012104F12400FFF7E9FCE4E7004402581A
:1037300000480258CFFFFF0001263546E4E72E4639
:10374000E2E70121201DFFF761FC054605BB984A11
:10375000D4F89010936D23F007030B43936523680F
:10376000980629D5D4F88C30B3F1005F3AD011D83F
:10377000CBB1B3F1805F2FD0012635461CE001218B
:1037800004F12400FFF7BAFCDFE701263546E6E73F
:103790002E46E4E7B3F1804F05D0B3F1A04F02D03D
:1037A000B3F1405FE8D11DBB814AD4F88C10536D52
:1037B00023F0E0430B435365236859062CD5D4F816
:1037C0009830B3F5006F3FD014D8E3B1B3F5806FF4
:1037D00034D0012635461FE00021201DFFF716FCDE
:1037E0000546E0E7022104F12400FFF787FCF7E734
:1037F0002E46E1E7B3F5805F05D0B3F5A05F02D0B8
:10380000B3F5406FE5D12DBB694AD4F89810936D9C
:1038100023F4E0530B43936523681A0630D5D4F89C
:103820009C30B3F5804F00F0A48015D8EBB1B3F510
:10383000005F00F098800126354621E00021201D20
:10384000FFF7E4FB0546DEE7022104F12400FFF761
:1038500055FCF7E72E46DFE7B3F5004F05D0B3F58B
:10386000204F02D0B3F5C04FE5D1002D40F0878046
:103870004F4AD4F89C10936D23F460430B43936537
:1038800023681B0714D5D4F88030B3F5805F07D1C7
:10389000022104F12400FFF731FC002818BF0126A3
:1038A000434AD4F88010536D23F440530B435365BF
:1038B0002368DF0614D5D4F89430B3F5807F07D1A0
:1038C000022104F12400FFF719FC002818BF01268B
:1038D000374AD4F89410936D23F440730B439365E7
:1038E0002368180317D5D4F8A010B1F5803F48D04D
:1038F000B1F5003F05D0002949D1201DFFF786FB17
:103900000546002D46D12A4AD4F8A010936D23F421
:1039100040330B4393652368590318D5D4F884309A
:10392000B3F5001F38D0B3F5401F07D0B3F5801FA3
:1039300039D11F4AD36A43F40033D362B5BB1C4A62
:10394000D4F88410536D23F440130B43536523685C
:10395000DA033DD5E36C6BB3B3F5803F00F09180A3
:103960000126354634E00021201DFFF74FFB0546B8
:103970007BE7022104F12400FFF7C0FBF7E72E46A6
:103980007EE7022104F12400FFF7B8FBB8E7012627
:103990003546C0E72E46BEE7012104F12400FFF7BB
:1039A000ADFB0546CAE701263546D0E72E46CEE7F1
:1039B000004402583F4AD36A43F40033D362002DD7
:1039C00065D13C4AE16CD36C23F480330B43D36460
:1039D00023689B0007D5022104F12400FFF78EFB2A
:1039E000002818BF012623689F030FD5E36FB3F5A6
:1039F000807F56D04DD8002B51D1002D57D12D4A64
:103A0000E16F536D23F440730B4353652368D80271
:103A100006D5284A216F136D23F000430B4313652D
:103A20002368D90007D5234AD4F8B410136923F4C6
:103A300080430B43136123689A0206D51D4AA16E89
:103A4000136D23F080730B43136523685B0009D566
:103A5000184B1A6922F400421A611A69D4F8B81096
:103A60000A431A612368002B06DA124A216DD36CCF
:103A700023F040530B43D364301C18BF0120BDE832
:103A8000F8830221201DFFF7C1FA054697E72E466D
:103A90009EE7B3F5007FB0D0B3F5407FADD00126EF
:103AA000B4E7044AD36A43F40033D362A5E72E4651
:103AB000ACE700BF0044025808B500F0D7FF054B43
:103AC000054A1B6AC3F30213D35C03F01F03D840FB
:103AD00008BD00BF0044025898E801904D4930B538
:103AE0008C6A8B6ACA6AC3F30533CD6B002B00F076
:103AF0008C8007EE903AC5F3CC05C2F30013B7EE05
:103B0000006AF8EEE76A6B4307EE903A04F00303AD
:103B1000012BFAEEE97A02D00FD3022B67D08B6B20
:103B2000DFED3D5AC3F3080307EE103AB8EEC77A4B
:103B300077EE277A77EE867A56E00B689B0646D5B5
:103B40000A688B6BC2F3C101344AC3F30803CA404D
:103B500007EE102AF8EEC75A85EEA67A06EE903ADE
:103B6000F8EEE66A76EEA77A77EE867A294A67EE6D
:103B7000877A936BC3F3462307EE103AB8EEC77A01
